{"abi":[{"type":"constructor","inputs":[{"name":"_priceFeedAddress","type":"address","internalType":"address"},{"name":"_nftMinter","type":"address","internalType":"address"},{"name":"_vrfConsumer","type":"address","internalType":"address"}],"stateMutability":"nonpayable"},{"type":"function","name":"campaigns","inputs":[{"name":"","type":"uint256","internalType":"uint256"}],"outputs":[{"name":"id","type":"uint256","internalType":"uint256"},{"name":"creator","type":"address","internalType":"address"},{"name":"topSupporter","type":"address","internalType":"address"},{"name":"firstContributor","type":"address","internalType":"address"},{"name":"title","type":"string","internalType":"string"},{"name":"description","type":"string","internalType":"string"},{"name":"goalAmount","type":"uint256","internalType":"uint256"},{"name":"deadline","type":"uint256","internalType":"uint256"},{"name":"amountRaised","type":"uint256","internalType":"uint256"},{"name":"highestContribution","type":"uint256","internalType":"uint256"},{"name":"isOpen","type":"bool","internalType":"bool"},{"name":"goalReached","type":"bool","internalType":"bool"},{"name":"fundsClaimed","type":"bool","internalType":"bool"}],"stateMutability":"view"},{"type":"function","name":"campaignsCount","inputs":[],"outputs":[{"name":"","type":"uint256","internalType":"uint256"}],"stateMutability":"view"},{"type":"function","name":"checkLinkBalance","inputs":[],"outputs":[{"name":"","type":"uint256","internalType":"uint256"}],"stateMutability":"view"},{"type":"function","name":"closeCampaign","inputs":[{"name":"_campaignId","type":"uint256","internalType":"uint256"}],"outputs":[],"stateMutability":"nonpayable"},{"type":"function","name":"contribute","inputs":[{"name":"_campaignId","type":"uint256","internalType":"uint256"}],"outputs":[],"stateMutability":"payable"},{"type":"function","name":"contributions","inputs":[{"name":"","type":"uint256","internalType":"uint256"},{"name":"","type":"uint256","internalType":"uint256"}],"outputs":[{"name":"sender","type":"address","internalType":"address"},{"name":"amount","type":"uint256","internalType":"uint256"},{"name":"timestamp","type":"uint256","internalType":"uint256"}],"stateMutability":"view"},{"type":"function","name":"ethPriceFeed","inputs":[],"outputs":[{"name":"","type":"address","internalType":"contract PriceDataFeed"}],"stateMutability":"view"},{"type":"function","name":"getContributors","inputs":[{"name":"_campaignId","type":"uint256","internalType":"uint256"}],"outputs":[{"name":"","type":"tuple[]","internalType":"struct Crowdfunding.Contribution[]","components":[{"name":"sender","type":"address","internalType":"address"},{"name":"amount","type":"uint256","internalType":"uint256"},{"name":"timestamp","type":"uint256","internalType":"uint256"}]}],"stateMutability":"view"},{"type":"function","name":"getEthPriceInUSD","inputs":[{"name":"ethAmount","type":"uint256","internalType":"uint256"}],"outputs":[{"name":"","type":"uint256","internalType":"uint256"}],"stateMutability":"view"},{"type":"function","name":"handleGoalReached","inputs":[{"name":"_campaignId","type":"uint256","internalType":"uint256"}],"outputs":[],"stateMutability":"nonpayable"},{"type":"function","name":"launchCampaign","inputs":[{"name":"_title","type":"string","internalType":"string"},{"name":"_description","type":"string","internalType":"string"},{"name":"_goalAmount","type":"uint256","internalType":"uint256"},{"name":"period","type":"uint256","internalType":"uint256"}],"outputs":[],"stateMutability":"nonpayable"},{"type":"function","name":"nftMinter","inputs":[],"outputs":[{"name":"","type":"address","internalType":"contract NFTminter"}],"stateMutability":"view"},{"type":"function","name":"owner","inputs":[],"outputs":[{"name":"","type":"address","internalType":"address"}],"stateMutability":"view"},{"type":"function","name":"refund","inputs":[{"name":"_campaignId","type":"uint256","internalType":"uint256"}],"outputs":[],"stateMutability":"nonpayable"},{"type":"function","name":"renounceOwnership","inputs":[],"outputs":[],"stateMutability":"nonpayable"},{"type":"function","name":"setVRFConsumer","inputs":[{"name":"_vrfConsumer","type":"address","internalType":"address"}],"outputs":[],"stateMutability":"nonpayable"},{"type":"function","name":"transferOwnership","inputs":[{"name":"newOwner","type":"address","internalType":"address"}],"outputs":[],"stateMutability":"nonpayable"},{"type":"function","name":"vrfConsumer","inputs":[],"outputs":[{"name":"","type":"address","internalType":"contract VRFv25Consumer"}],"stateMutability":"view"},{"type":"function","name":"withdrawFunds","inputs":[{"name":"_campaignId","type":"uint256","internalType":"uint256"}],"outputs":[],"stateMutability":"nonpayable"},{"type":"event","name":"CampaignLaunched","inputs":[{"name":"campaignId","type":"uint256","indexed":true,"internalType":"uint256"},{"name":"creator","type":"address","indexed":true,"internalType":"address"},{"name":"name","type":"string","indexed":false,"internalType":"string"}],"anonymous":false},{"type":"event","name":"ContributionInUSD","inputs":[{"name":"usdAmount","type":"uint256","indexed":false,"internalType":"uint256"}],"anonymous":false},{"type":"event","name":"FirstSupporter","inputs":[{"name":"campaignId","type":"uint256","indexed":true,"internalType":"uint256"},{"name":"firstSupporter","type":"address","indexed":true,"internalType":"address"}],"anonymous":false},{"type":"event","name":"FundsWithdrawn","inputs":[{"name":"campaignId","type":"uint256","indexed":true,"internalType":"uint256"},{"name":"creator","type":"address","indexed":true,"internalType":"address"},{"name":"amount","type":"uint256","indexed":false,"internalType":"uint256"}],"anonymous":false},{"type":"event","name":"GoalHandled","inputs":[{"name":"campaignId","type":"uint256","indexed":true,"internalType":"uint256"}],"anonymous":false},{"type":"event","name":"GoalReached","inputs":[{"name":"campaignId","type":"uint256","indexed":true,"internalType":"uint256"},{"name":"amountRaised","type":"uint256","indexed":false,"internalType":"uint256"},{"name":"goalReached","type":"bool","indexed":false,"internalType":"bool"},{"name":"timestamp","type":"uint256","indexed":false,"internalType":"uint256"}],"anonymous":false},{"type":"event","name":"OwnershipTransferred","inputs":[{"name":"previousOwner","type":"address","indexed":true,"internalType":"address"},{"name":"newOwner","type":"address","indexed":true,"internalType":"address"}],"anonymous":false},{"type":"event","name":"RefundIssued","inputs":[{"name":"campaignId","type":"uint256","indexed":true,"internalType":"uint256"},{"name":"contributor","type":"address","indexed":true,"internalType":"address"},{"name":"amount","type":"uint256","indexed":false,"internalType":"uint256"}],"anonymous":false},{"type":"event","name":"TopSupporterUpdated","inputs":[{"name":"campaignId","type":"uint256","indexed":true,"internalType":"uint256"},{"name":"newTopSupporter","type":"address","indexed":true,"internalType":"address"},{"name":"newHighestContribution","type":"uint256","indexed":false,"internalType":"uint256"}],"anonymous":false},{"type":"error","name":"OwnableInvalidOwner","inputs":[{"name":"owner","type":"address","internalType":"address"}]},{"type":"error","name":"OwnableUnauthorizedAccount","inputs":[{"name":"account","type":"address","internalType":"address"}]},{"type":"error","name":"ReentrancyGuardReentrantCall","inputs":[]}],"bytecode":{"object":"0x6080346200010b57601f62001a9938819003918201601f19168301916001600160401b038311848410176200010f578084926060946040528339810103126200010b576200004d8162000123565b620000696040620000616020850162000123565b930162000123565b903315620000f3575f80546001600160a01b03198082163390811784556040519691956001600160a01b039590948694859391908416907f8be0079c531659141344cd1fd0a4f28419497f9722a3daafe3b4186f6b6457e09080a3600180551685600254161760025516836003541617600355169060045416176004556119609081620001398239f35b604051631e4fbdf760e01b81525f6004820152602490fd5b5f80fd5b634e487b7160e01b5f52604160045260245ffd5b51906001600160a01b03821682036200010b5756fe60806040526004361015610011575f80fd5b5f803560e01c8063141961bc14611460578063155dd5ee146112b35780631a7da94814610e0b5780631ef4d1fd14610de2578063278ecde114610bf05780633c1ab00f14610afd57806344c89b6514610adf578063715018a614610a85578063830e28f614610a225780638da5cb5b146109fb578063a1164e7a146109d2578063a24bf4ff14610938578063af7665ce1461090f578063b0e1c1e11461087c578063c1cbbca714610572578063cbc7b293146101eb578063cfd6aa90146101a2578063d590e9d41461017b5763f2fde38b146100eb575f80fd5b34610178576020366003190112610178576004356001600160a01b03818116918290036101745761011a61172e565b811561015b575f54826001600160601b0360a01b8216175f55167f8be0079c531659141344cd1fd0a4f28419497f9722a3daafe3b4186f6b6457e05f80a380f35b604051631e4fbdf760e01b815260048101849052602490fd5b8280fd5b80fd5b503461017857602036600319011261017857602061019a600435611759565b604051908152f35b5034610178576020366003190112610178576004356001600160a01b038116908190036101e7576101d161172e565b6001600160601b0360a01b600454161760045580f35b5080fd5b50346101785760209081600319360112610178576004359081151580610566575b610215906118aa565b818152600592838152604082209260018060a01b03938460035416801561052d578154908660038401541691813b156104b55760405163fdc568a360e01b815260048101919091526001600160a01b0392909216602483015285908290604490829084905af180156105225761050f575b50846003541685600283549301541691813b1561050b576040516330fd012b60e21b815260048101919091526001600160a01b0392909216602483015284908290604490829084905af1801561046d579084916104f7575b508190526006938483526040842054156104b95781845284835260408420549161032061030a84611912565b9361031860405195866115d2565b808552611912565b8385019190601f1901368337855b8187528786526040872080548210156103825761034c828692611701565b505416855182101561036e57818a1b860187015261036990611849565b61032e565b634e487b7160e01b88526032600452602488fd5b5050949550816004541690813b156104b557908693929160405193630547db4160e11b855260448501908860048701526040602487015251809152606485019190865b8882821061049c57505050508491848381809403925af180156104915784928491610478575b505060045416602460405180948193635e42a34560e01b83528860048401525af1801561046d57610440575b50507f9ad8872b8e0eeacd2b9d7afcd9ac3d932cd21e87cda32132fa0d14e7e06210678280a280f35b813d8311610466575b61045381836115d2565b81010312610462578280610417565b5f80fd5b503d610449565b6040513d86823e3d90fd5b610484919293506115be565b6101e757829082876103eb565b6040513d85823e3d90fd5b8351871685528b985093840193909201916001016103c5565b8680fd5b60405162461bcd60e51b8152600481018490526016602482015275139bc818dbdb9d1c9a589d5d1a5bdb9cc8199bdd5b9960521b6044820152606490fd5b610500906115be565b61017457825f6102de565b8580fd5b61051b909491946115be565b925f610286565b6040513d87823e3d90fd5b60405162461bcd60e51b8152600481018590526011602482015270139195135a5b9d195c881b9bdd081cd95d607a1b6044820152606490fd5b5060075482111561020c565b5060209081600319360112610178576004359161058d6118ef565b82151580610870575b61059f906118aa565b341561083357828252600581526040822092600a840160ff815416156107f95760078501544210156107c357600885016105da348254611857565b8155828552600684526040852091604051916105f58361158e565b338352858301933485526040840190428252805490680100000000000000008210156107af579061062b91600182018155611701565b91909161079b57927f395fdb9711a268b7720cf522f9a6c57d15cb4c85c7c983058b6d51a43ee5565b9899928792600260039660018060a01b0380995116996001600160601b0360a01b9a8b855416178455516001840155519101556009840180543411610758575b5054906006840154821015610704575b50505001918254918216156106cf575b505050506106c134611759565b604051908152a16001805580f35b33911617905533907f7154d9e4f801041af603f4f9b73de77aeba7a57d997067b166a2d68d37613cb78580a35f8080806106b4565b7fb0159aff0fc172e60f3c6c72806aa85b50e524a9e8c2a3e2035996fe177321bb9160ff60609261010061ff00198254161780915560405192835260081c1615158a820152426040820152a2845f806106a4565b6002850133898254161790553490558354604051903482527f65ed7f88747f9b9d9c9acc1620afb563171f98587afa8f6c3e3311152bea47c18b3393a35f610694565b634e487b7160e01b89526004899052602489fd5b634e487b7160e01b8a52604160045260248afd5b60405162461bcd60e51b815260048101849052600e60248201526d10d85b5c185a59db88195b99195960921b6044820152606490fd5b60405162461bcd60e51b815260048101849052601260248201527110d85b5c185a59db881a5cc818db1bdcd95960721b6044820152606490fd5b6064906040519062461bcd60e51b82526004820152601660248201527553656e642045544820746f20636f6e7472696275746560501b6044820152fd5b50600754831115610596565b50346101785760203660031901126101785760043580151580610903575b6108a3906118aa565b8152600560205260408120600781015442106108c757600a01805460ff1916905580f35b60405162461bcd60e51b8152602060048201526014602482015273111958591b1a5b99481b9bdd081c995858da195960621b6044820152606490fd5b5060075481111561089a565b50346101785780600319360112610178576002546040516001600160a01b039091168152602090f35b50346101785780600319360112610178576040516370a0823160e01b815230600482015260208160248173779877a7b0d9e8603169ddbd7836e478b46247895afa9081156109c7578291610992575b602082604051908152f35b90506020813d82116109bf575b816109ac602093836115d2565b810103126101e75760209150515f610987565b3d915061099f565b6040513d84823e3d90fd5b50346101785780600319360112610178576003546040516001600160a01b039091168152602090f35b5034610178578060031936011261017857546040516001600160a01b039091168152602090f35b503461017857604036600319011261017857602435906004358152600660205260408120908154831015610178576060610a5c8484611701565b5060018060a01b0381541690600260018201549101549060405192835260208301526040820152f35b5034610178578060031936011261017857610a9e61172e565b80546001600160a01b03198116825581906001600160a01b03167f8be0079c531659141344cd1fd0a4f28419497f9722a3daafe3b4186f6b6457e08280a380f35b50346101785780600319360112610178576020600754604051908152f35b503461017857602090816003193601126101785790600435825260068152604082208054610b2a81611912565b90610b3860405192836115d2565b8082528382018093865284862086915b838310610ba957505050506040519280840191818552518092526040840192945b828110610b765784840385f35b855180516001600160a01b0316855280830151858401526040908101519085015294810194606090930192600101610b69565b60038760019260409a9997989a51610bc08161158e565b848060a01b0386541681528486015483820152600286015460408201528152019201920191909694939596610b48565b5034610178576020806003193601126101e75760043591610c0f6118ef565b82151580610dd6575b610c21906118aa565b82815260058252604081206007810154421115610d9957600a015460081c60ff16610d54578281526006825260408120928190825b8554811015610cd45780610c6d610c899288611701565b50546001600160a01b0316331480610cbd575b610c8e57611849565b610c56565b84610caa610c9c838a611701565b509560018097015490611857565b94610cb5838a611701565b500155611849565b506001610cca8289611701565b5001541515610c80565b50838215610d1b5783808080863382f115610491577f7a482fdeb6bc9a1376f597068a214a7a39472bb2eff1b8cad21ba04f49ddca1b906040519384523393a36001805580f35b6064906040519062461bcd60e51b825260048201526012602482015271139bc8199d5b991cc81d1bc81c99599d5b9960721b6044820152fd5b60405162461bcd60e51b815260048101839052601760248201527f43616d706169676e20776173207375636365737366756c0000000000000000006044820152606490fd5b60405162461bcd60e51b815260048101849052601560248201527443616d706169676e207374696c6c2061637469766560581b6044820152606490fd5b50600754831115610c18565b50346101785780600319360112610178576004546040516001600160a01b039091168152602090f35b50346101785760803660031901126101785760043567ffffffffffffffff81116101e757610e3d9036906004016116d3565b9060243567ffffffffffffffff81116112af57610e5e9036906004016116d3565b9060643590610e6e600754611849565b9182600755620151809081810291818304149015171561129b57610e929042611857565b90604051936101a0850185811067ffffffffffffffff8211176112875790610ee49291604052848652336020870152886040870152886060870152610ed8368989611864565b60808701523691611864565b60a084015260443560c084015260e08301528461010083015284610120830152600161014083015284610160830152846101808301528452600560205260408420815181556001810160018060a01b039081602085015116906001600160601b0360a01b9182825416179055600283018260408601511682825416179055600383019160608501511690825416179055608082015180519067ffffffffffffffff82116111aa578190610f9a6004850154611556565b601f8111611237575b50602090601f83116001146111c95788926111be575b50508160011b915f199060031b1c19161760048201555b60a082015180519067ffffffffffffffff82116111aa57610ff46005840154611556565b601f8111611166575b50602090601f83116001146110f757600a9392918891836110ec575b50508160011b915f199060031b1c19161760058201555b60c0830151600682015560e08301516007820155610100830151600882015561012083015160098201550190610140810151151590825460ff62ff000061018061ff00610160860151151560081b16940151151560101b1693169062ffffff191617171790557f1a236e63305f0e6431bd243e7f2498d27527c422ab41a7dc976e39fab72d5edd60075491836040519160208352816020840152604083013784604085830101526040813395601f80199101168101030190a380f35b015190505f80611019565b906005840188526020882091885b601f198516811061114e5750918391600193600a9695601f19811610611136575b505050811b016005820155611030565b01515f1960f88460031b161c191690555f8080611126565b91926020600181928685015181550194019201611105565b60058401885260208820601f840160051c8101602085106111a3575b601f830160051c82018110611198575050610ffd565b898155600101611182565b5080611182565b634e487b7160e01b87526041600452602487fd5b015190505f80610fb9565b9250600484018852602088209088935b601f198416851061121c576001945083601f19811610611204575b505050811b016004820155610fd0565b01515f1960f88460031b161c191690555f80806111f4565b818101518355602094850194600190930192909101906111d9565b90915060048401885260208820601f840160051c810160208510611280575b90849392915b601f830160051c82018110611272575050610fa3565b8a815585945060010161125c565b5080611256565b634e487b7160e01b89526041600452602489fd5b634e487b7160e01b87526011600452602487fd5b8380fd5b5034610178576020806003193601126101e7576004356112d16118ef565b80151580611454575b6112e3906118aa565b80835260058252604083206001810180546001600160a01b039081169491923386900361140f57600a8101805460ff8160081c16156113ca5760ff8160101c1661138d578860088194829462010000849562ff000019161790550198895490828215611384575bf115610522577ff440aec6b52895984d061d622e6edeba6210f7c3e059be920663140c084560d79254169354604051908152a36001805580f35b506108fc61134a565b60405162461bcd60e51b8152600481018690526015602482015274119d5b991cc8185b1c9958591e4818db185a5b5959605a1b6044820152606490fd5b60405162461bcd60e51b815260048101869052601860248201527f46756e64696e6720676f616c206e6f74207265616368656400000000000000006044820152606490fd5b60405162461bcd60e51b815260048101849052601960248201527f4f6e6c792063726561746f722063616e207769746864726177000000000000006044820152606490fd5b506007548111156112da565b50346101785760203660031901126101785760406020916004358152600583522080549060ff60018060a01b039182600182015416908360028201541693600382015416936114b1600483016115f4565b946115166114c1600585016115f4565b611508600686015498600787015494600888015496600a60098a0154990154996040519e8f9e8f908152015260408d015260608c01526101a08060808d01528b0190611695565b9089820360a08b0152611695565b9560c088015260e08701526101008601526101208501528181161515610140850152818160081c16151561016085015260101c1615156101808301520390f35b90600182811c92168015611584575b602083101461157057565b634e487b7160e01b5f52602260045260245ffd5b91607f1691611565565b6060810190811067ffffffffffffffff8211176115aa57604052565b634e487b7160e01b5f52604160045260245ffd5b67ffffffffffffffff81116115aa57604052565b90601f8019910116810190811067ffffffffffffffff8211176115aa57604052565b9060405191825f82549261160784611556565b9081845260019485811690815f146116725750600114611632575b5050611630925003836115d2565b565b909391505f52602090815f20935f915b81831061165a57505061163093508201015f80611622565b85548884018501529485019487945091830191611642565b91505061163094506020925060ff191682840152151560051b8201015f80611622565b91908251928382525f5b8481106116bf575050825f602080949584010152601f8019910116010190565b60208183018101518483018201520161169f565b9181601f840112156104625782359167ffffffffffffffff8311610462576020838186019501011161046257565b805482101561171a575f52600360205f20910201905f90565b634e487b7160e01b5f52603260045260245ffd5b5f546001600160a01b0316330361174157565b60405163118cdaa760e01b8152336004820152602490fd5b60025460405163bea4dfb560e01b815290602090829060049082906001600160a01b03165afa90811561183e575f9161180d575b505f8113156117d45781156117c957808202918204036117b557670de0b6b3a7640000900490565b634e487b7160e01b5f52601160045260245ffd5b6305f5e10091500490565b60405162461bcd60e51b8152602060048201526011602482015270496e76616c69642045544820707269636560781b6044820152606490fd5b906020823d8211611836575b81611826602093836115d2565b810103126101785750515f61178d565b3d9150611819565b6040513d5f823e3d90fd5b5f1981146117b55760010190565b919082018092116117b557565b92919267ffffffffffffffff82116115aa576040519161188e601f8201601f1916602001846115d2565b829481845281830111610462578281602093845f960137010152565b156118b157565b60405162461bcd60e51b815260206004820152601660248201527510d85b5c185a59db88191bd95cdb89dd08195e1a5cdd60521b6044820152606490fd5b600260015414611900576002600155565b604051633ee5aeb560e01b8152600490fd5b67ffffffffffffffff81116115aa5760051b6020019056fea26469706673582212204a705bfb3e87b8708eaad82824905872155ff96d16b0a51b99586311b232ba6d64736f6c63430008140033","linkReferences":{}},"methodIdentifiers":{"campaigns(uint256)":"141961bc","campaignsCount()":"44c89b65","checkLinkBalance()":"a24bf4ff","closeCampaign(uint256)":"b0e1c1e1","contribute(uint256)":"c1cbbca7","contributions(uint256,uint256)":"830e28f6","ethPriceFeed()":"af7665ce","getContributors(uint256)":"3c1ab00f","getEthPriceInUSD(uint256)":"d590e9d4","handleGoalReached(uint256)":"cbc7b293","launchCampaign(string,string,uint256,uint256)":"1a7da948","nftMinter()":"a1164e7a","owner()":"8da5cb5b","refund(uint256)":"278ecde1","renounceOwnership()":"715018a6","setVRFConsumer(address)":"cfd6aa90","transferOwnership(address)":"f2fde38b","vrfConsumer()":"1ef4d1fd","withdrawFunds(uint256)":"155dd5ee"},"id":27}