{"abi":[{"type":"constructor","inputs":[],"stateMutability":"nonpayable"},{"type":"function","name":"approve","inputs":[{"name":"to","type":"address","internalType":"address"},{"name":"tokenId","type":"uint256","internalType":"uint256"}],"outputs":[],"stateMutability":"nonpayable"},{"type":"function","name":"balanceOf","inputs":[{"name":"owner","type":"address","internalType":"address"}],"outputs":[{"name":"","type":"uint256","internalType":"uint256"}],"stateMutability":"view"},{"type":"function","name":"crowdFundContractAddr","inputs":[],"outputs":[{"name":"","type":"address","internalType":"address"}],"stateMutability":"view"},{"type":"function","name":"firstSupporterMinted","inputs":[{"name":"","type":"uint256","internalType":"uint256"}],"outputs":[{"name":"","type":"bool","internalType":"bool"}],"stateMutability":"view"},{"type":"function","name":"firstSupporterURI","inputs":[],"outputs":[{"name":"","type":"string","internalType":"string"}],"stateMutability":"view"},{"type":"function","name":"getApproved","inputs":[{"name":"tokenId","type":"uint256","internalType":"uint256"}],"outputs":[{"name":"","type":"address","internalType":"address"}],"stateMutability":"view"},{"type":"function","name":"isApprovedForAll","inputs":[{"name":"owner","type":"address","internalType":"address"},{"name":"operator","type":"address","internalType":"address"}],"outputs":[{"name":"","type":"bool","internalType":"bool"}],"stateMutability":"view"},{"type":"function","name":"mintRaffleNFT","inputs":[{"name":"_campaignId","type":"uint256","internalType":"uint256"},{"name":"winner","type":"address","internalType":"address"}],"outputs":[],"stateMutability":"nonpayable"},{"type":"function","name":"mintToFirstSupporter","inputs":[{"name":"_campaignId","type":"uint256","internalType":"uint256"},{"name":"firstSupporter","type":"address","internalType":"address"}],"outputs":[],"stateMutability":"nonpayable"},{"type":"function","name":"mintToTopSupporter","inputs":[{"name":"_campaignId","type":"uint256","internalType":"uint256"},{"name":"topSupporter","type":"address","internalType":"address"}],"outputs":[],"stateMutability":"nonpayable"},{"type":"function","name":"name","inputs":[],"outputs":[{"name":"","type":"string","internalType":"string"}],"stateMutability":"view"},{"type":"function","name":"owner","inputs":[],"outputs":[{"name":"","type":"address","internalType":"address"}],"stateMutability":"view"},{"type":"function","name":"ownerOf","inputs":[{"name":"tokenId","type":"uint256","internalType":"uint256"}],"outputs":[{"name":"","type":"address","internalType":"address"}],"stateMutability":"view"},{"type":"function","name":"renounceOwnership","inputs":[],"outputs":[],"stateMutability":"nonpayable"},{"type":"function","name":"safeTransferFrom","inputs":[{"name":"from","type":"address","internalType":"address"},{"name":"to","type":"address","internalType":"address"},{"name":"tokenId","type":"uint256","internalType":"uint256"}],"outputs":[],"stateMutability":"nonpayable"},{"type":"function","name":"safeTransferFrom","inputs":[{"name":"from","type":"address","internalType":"address"},{"name":"to","type":"address","internalType":"address"},{"name":"tokenId","type":"uint256","internalType":"uint256"},{"name":"data","type":"bytes","internalType":"bytes"}],"outputs":[],"stateMutability":"nonpayable"},{"type":"function","name":"setApprovalForAll","inputs":[{"name":"operator","type":"address","internalType":"address"},{"name":"approved","type":"bool","internalType":"bool"}],"outputs":[],"stateMutability":"nonpayable"},{"type":"function","name":"setCrowdFundContract","inputs":[{"name":"_addr","type":"address","internalType":"address"}],"outputs":[],"stateMutability":"nonpayable"},{"type":"function","name":"setVRFContract","inputs":[{"name":"_addr","type":"address","internalType":"address"}],"outputs":[],"stateMutability":"nonpayable"},{"type":"function","name":"supportsInterface","inputs":[{"name":"interfaceId","type":"bytes4","internalType":"bytes4"}],"outputs":[{"name":"","type":"bool","internalType":"bool"}],"stateMutability":"view"},{"type":"function","name":"symbol","inputs":[],"outputs":[{"name":"","type":"string","internalType":"string"}],"stateMutability":"view"},{"type":"function","name":"tokenId","inputs":[],"outputs":[{"name":"","type":"uint256","internalType":"uint256"}],"stateMutability":"view"},{"type":"function","name":"tokenURI","inputs":[{"name":"tokenId","type":"uint256","internalType":"uint256"}],"outputs":[{"name":"","type":"string","internalType":"string"}],"stateMutability":"view"},{"type":"function","name":"topSupporterMinted","inputs":[{"name":"","type":"uint256","internalType":"uint256"}],"outputs":[{"name":"","type":"bool","internalType":"bool"}],"stateMutability":"view"},{"type":"function","name":"topSupporterURI","inputs":[],"outputs":[{"name":"","type":"string","internalType":"string"}],"stateMutability":"view"},{"type":"function","name":"transferFrom","inputs":[{"name":"from","type":"address","internalType":"address"},{"name":"to","type":"address","internalType":"address"},{"name":"tokenId","type":"uint256","internalType":"uint256"}],"outputs":[],"stateMutability":"nonpayable"},{"type":"function","name":"transferOwnership","inputs":[{"name":"newOwner","type":"address","internalType":"address"}],"outputs":[],"stateMutability":"nonpayable"},{"type":"function","name":"updateURIs","inputs":[{"name":"_firstURI","type":"string","internalType":"string"},{"name":"_topURI","type":"string","internalType":"string"},{"name":"_vrfWinnerURI","type":"string","internalType":"string"}],"outputs":[],"stateMutability":"nonpayable"},{"type":"function","name":"userToCampaignToken","inputs":[{"name":"","type":"address","internalType":"address"},{"name":"","type":"uint256","internalType":"uint256"}],"outputs":[{"name":"","type":"uint256","internalType":"uint256"}],"stateMutability":"view"},{"type":"function","name":"vrfContractAddr","inputs":[],"outputs":[{"name":"","type":"address","internalType":"address"}],"stateMutability":"view"},{"type":"function","name":"vrfWinnerURI","inputs":[],"outputs":[{"name":"","type":"string","internalType":"string"}],"stateMutability":"view"},{"type":"event","name":"Approval","inputs":[{"name":"owner","type":"address","indexed":true,"internalType":"address"},{"name":"approved","type":"address","indexed":true,"internalType":"address"},{"name":"tokenId","type":"uint256","indexed":true,"internalType":"uint256"}],"anonymous":false},{"type":"event","name":"ApprovalForAll","inputs":[{"name":"owner","type":"address","indexed":true,"internalType":"address"},{"name":"operator","type":"address","indexed":true,"internalType":"address"},{"name":"approved","type":"bool","indexed":false,"internalType":"bool"}],"anonymous":false},{"type":"event","name":"BatchMetadataUpdate","inputs":[{"name":"_fromTokenId","type":"uint256","indexed":false,"internalType":"uint256"},{"name":"_toTokenId","type":"uint256","indexed":false,"internalType":"uint256"}],"anonymous":false},{"type":"event","name":"MetadataUpdate","inputs":[{"name":"_tokenId","type":"uint256","indexed":false,"internalType":"uint256"}],"anonymous":false},{"type":"event","name":"NFTMinted","inputs":[{"name":"to","type":"address","indexed":true,"internalType":"address"},{"name":"tokenId","type":"uint256","indexed":true,"internalType":"uint256"},{"name":"tokenURI","type":"string","indexed":false,"internalType":"string"}],"anonymous":false},{"type":"event","name":"OwnershipTransferred","inputs":[{"name":"previousOwner","type":"address","indexed":true,"internalType":"address"},{"name":"newOwner","type":"address","indexed":true,"internalType":"address"}],"anonymous":false},{"type":"event","name":"Transfer","inputs":[{"name":"from","type":"address","indexed":true,"internalType":"address"},{"name":"to","type":"address","indexed":true,"internalType":"address"},{"name":"tokenId","type":"uint256","indexed":true,"internalType":"uint256"}],"anonymous":false},{"type":"error","name":"ERC721IncorrectOwner","inputs":[{"name":"sender","type":"address","internalType":"address"},{"name":"tokenId","type":"uint256","internalType":"uint256"},{"name":"owner","type":"address","internalType":"address"}]},{"type":"error","name":"ERC721InsufficientApproval","inputs":[{"name":"operator","type":"address","internalType":"address"},{"name":"tokenId","type":"uint256","internalType":"uint256"}]},{"type":"error","name":"ERC721InvalidApprover","inputs":[{"name":"approver","type":"address","internalType":"address"}]},{"type":"error","name":"ERC721InvalidOperator","inputs":[{"name":"operator","type":"address","internalType":"address"}]},{"type":"error","name":"ERC721InvalidOwner","inputs":[{"name":"owner","type":"address","internalType":"address"}]},{"type":"error","name":"ERC721InvalidReceiver","inputs":[{"name":"receiver","type":"address","internalType":"address"}]},{"type":"error","name":"ERC721InvalidSender","inputs":[{"name":"sender","type":"address","internalType":"address"}]},{"type":"error","name":"ERC721NonexistentToken","inputs":[{"name":"tokenId","type":"uint256","internalType":"uint256"}]},{"type":"error","name":"OwnableInvalidOwner","inputs":[{"name":"owner","type":"address","internalType":"address"}]},{"type":"error","name":"OwnableUnauthorizedAccount","inputs":[{"name":"account","type":"address","internalType":"address"}]}],"bytecode":{"object":"0x608034620004e2576040906001600160401b039080830182811182821017620004ce578352600f815260206e10dc9bddd9119d5b9914995dd85c99608a1b8183015283519184830183811085821117620004ce5785526003928381526221a32960e91b83820152815194808611620004ce575f9580620000808854620004e6565b94601f958681116200049e575b508690868311600114620004385789926200042c575b50508160011b915f1990881b1c19161786555b8151908111620004185780600192620000d08454620004e6565b858111620003dd575b5085908583116001146200037b5788926200036f575b50505f1982871b1c191690821b1781555b331562000357579261062760f41b94927f70646a6b35357177686f70376d35326a34692f5652462057696e6e65722e7765926004956007543360018060a01b0319821617600755339060018060a01b03167f8be0079c531659141344cd1fd0a4f28419497f9722a3daafe3b4186f6b6457e08880a385600a5562000186600b54620004e6565b82811162000333575b50610111600b55600b8652828620927f68747470733a2f2f6a6164652d6d616e6167696e672d64696e6f736175722d38968785557f35312e6d7970696e6174612e636c6f75642f697066732f626166796265696664938484870155670746f722e776562760c41b8a7f666532636b723268327374337a7562716d676b757232637a706e776871687761978860028201557f70646a6b35357177686f70376d35326a34692f6669727374436f6e74726962758a820155015562000253600c54620004e6565b8181116200030f575b5061010d600c55600c8252650722e776562760d41b8a8484208b815587878201558860028201557f70646a6b35357177686f70376d35326a34692f546f70436f6e7472696275746f8a8201550155620002b7600d54620004e6565b818111620002eb575b5050610105600d55600d8152209586558501556002840155820155015551611d6790816200053a8239f35b60056200030792600d85528585209201811c8201910162000521565b5f80620002c0565b6200032c90600c84526005838686209201811c8201910162000521565b5f6200025c565b6200035090600b8852600584868a209201811c8201910162000521565b5f6200018f565b8551631e4fbdf760e01b815260048101869052602490fd5b015190505f80620000ef565b8489528689208594509190601f1984168a5b89828210620003c65750508411620003ae575b505050811b01815562000100565b01515f1983891b60f8161c191690555f8080620003a0565b83850151865588979095019493840193016200038d565b6200040790858a52878a208780860160051c8201928a87106200040e575b0160051c019062000521565b5f620000d9565b92508192620003fb565b634e487b7160e01b86526041600452602486fd5b015190505f80620000a3565b898052878a209250601f1984168a5b89828210620004875750509084600195949392106200046f575b505050811b018655620000b6565b01515f19838a1b60f8161c191690555f808062000461565b600185968293968601518155019501930162000447565b620004c7908a8052888b208880860160051c8201928b87106200040e570160051c019062000521565b5f6200008d565b634e487b7160e01b5f52604160045260245ffd5b5f80fd5b90600182811c9216801562000516575b60208310146200050257565b634e487b7160e01b5f52602260045260245ffd5b91607f1691620004f6565b8181106200052d575050565b5f81556001016200052156fe608060409080825260049182361015610016575f80fd5b5f91823560e01c90816301ffc9a7146111e8575080630549097d146111a857806306fdde0314611101578063081812fc146110c5578063095ea7b314610fe857806314e7bcfd14610fc457806317d70f7c14610fa657806323b872dd14610f8e57806334b371c714610f4e57806342842e0e14610f205780635251e75b14610ef35780635dc34a1e14610aa85780636352211e14610a7757806367e6f6cc1461095057806370a08231146108fb578063715018a61461089e578063853b2b881461085b57806389aff34c146108375780638ab82b281461080f5780638da5cb5b146107e757806395d89b41146107175780639692ecb8146106e1578063a22cb4651461063f578063b88d4fde146105cd578063c3f404ac146104cf578063c87b56dd146103da578063cd9b68d3146103ad578063e985e9c514610360578063f2fde38b146102d1578063f992fa4a146102a95763fdc568a314610177575f80fd5b346102a557806003193601126102a557823592610192611288565b9360018060a01b03916101aa836008541633146118f7565b818552602092600e84526101c460ff868820541615611939565b861690811561026d57506101eb600e9495966101e1600a54611976565b9081600a55611998565b61020d600a548651906102088261020181611439565b03836114ed565b611bbe565b600a549080875260108452858720838852845281868820557fd35bb95e09c04b219e35047ce7b7b300e3384264ef84a40456943dbc0fc17c14865185815280610257878201611439565b0390a38452528120805460ff1916600117905580f35b845162461bcd60e51b815290810184905260126024820152712737903334b939ba1039bab83837b93a32b960711b6044820152606490fd5b5080fd5b50346102a557816003193601126102a55760095490516001600160a01b039091168152602090f35b50823461035c57602036600319011261035c576102ec61126e565b906102f56115b4565b6001600160a01b03918216928315610346575050600754826001600160601b0360a01b821617600755167f8be0079c531659141344cd1fd0a4f28419497f9722a3daafe3b4186f6b6457e08380a380f35b51631e4fbdf760e01b8152908101849052602490fd5b8280fd5b50346102a557806003193601126102a55760ff8160209361037f61126e565b610387611288565b6001600160a01b0391821683526005875283832091168252855220549151911615158152f35b50823461035c57602036600319011261035c578160209360ff92358152600f855220541690519015158152f35b5082903461035c57602091826003193601126104cb57356103fa8161177b565b50835260068252808320928151809482908054610416816112dc565b918285526001918883821691825f146104a4575050600114610466575b5050506104629392916104479103866114ed565b8151610452816114bd565b525192828493845283019061129e565b0390f35b8552868520879350859291905b82841061048c5750505082010181610447610462610433565b8054848b018601528995508894909301928101610473565b60ff19168782015293151560051b8601909301935084925061044791506104629050610433565b8380fd5b50346102a557806003193601126102a55782356104ea611288565b9060018060a01b03610501816008541633146118f7565b82169485156105975750839481600f94955261053760209385855261052c60ff888a20541615611939565b6101e1600a54611976565b61054d600a548651906102088261020181611314565b600a549080875260108452858720838852845281868820557fd35bb95e09c04b219e35047ce7b7b300e3384264ef84a40456943dbc0fc17c14865185815280610257878201611314565b606490602085519162461bcd60e51b8352820152601060248201526f2737903a37b81039bab83837b93a32b960811b6044820152fd5b8284346102a55760803660031901126102a5576105e861126e565b6105f0611288565b6044359060643567ffffffffffffffff811161063b573660238201121561063b576106389481602461062793369301359101611560565b926106338383836115e0565b6117b5565b80f35b8580fd5b5082903461035c578060031936011261035c5761065a61126e565b90602435918215158093036106dd576001600160a01b03169283156106c85750338452600560205280842083855260205280842060ff1981541660ff8416179055519081527f17307eab39ab6107e8899845ad3d59bd9653f200f220920489ca2b5937696c3160203392a380f35b836024925191630b61174360e31b8352820152fd5b8480fd5b50346102a557816003193601126102a55780516104629161070582610201816113b5565b5191829160208352602083019061129e565b50346102a557816003193601126102a55780519082600180549161073a836112dc565b808652928281169081156107bf5750600114610763575b505050610705826104629403836114ed565b94508085527fb10e2d527612073b26eecdfd717e6a320cf44b4afac2b0732d9fcbe2b7fa0cf65b8286106107a7575050506107058260206104629582010194610751565b8054602087870181019190915290950194810161078a565b61046297508693506020925061070594915060ff191682840152151560051b82010194610751565b50346102a557816003193601126102a55760075490516001600160a01b039091168152602090f35b50346102a557816003193601126102a55760085490516001600160a01b039091168152602090f35b50346102a557816003193601126102a5578051610462916107058261020181611439565b823461089b57602036600319011261089b5761087561126e565b61087d6115b4565b60018060a01b03166001600160601b0360a01b600954161760095580f35b80fd5b823461089b578060031936011261089b576108b76115b4565b600780546001600160a01b0319811690915581906001600160a01b03167f8be0079c531659141344cd1fd0a4f28419497f9722a3daafe3b4186f6b6457e08280a380f35b50903461089b57602036600319011261089b576001600160a01b0361091e61126e565b1692831561093b5750806020938392526003845220549051908152f35b91516322718ad960e21b815291820152602490fd5b5082903461035c578060031936011261035c5761096b611288565b6009549091906001600160a01b039081163303610a34578216918215610a0557906109bc7fd35bb95e09c04b219e35047ce7b7b300e3384264ef84a40456943dbc0fc17c14926101e1600a54611976565b6109d2600a5482519061020882610201816113b5565b600a549383865260106020528186209035865260205283818620555160208152806109ff602082016113b5565b0390a380f35b815162461bcd60e51b815260208186015260096024820152682737903bb4b73732b960b91b6044820152606490fd5b815162461bcd60e51b8152602081860152601a60248201527f4f6e6c792056524620636f6e74726163742063616e206d696e740000000000006044820152606490fd5b50903461089b57602036600319011261089b5750610a976020923561177b565b90516001600160a01b039091168152f35b50503461089b57606036600319011261089b5767ffffffffffffffff823581811161035c57610ada9036908501611596565b926024358281116104cb57610af29036908301611596565b906044358381116106dd57610b0a9036908301611596565b91610b136115b4565b8551848111610de75780610b28600b546112dc565b97601f98898111610e87575b50602090898311600114610e05578892610dfa575b50508160011b915f199060031b1c191617600b555b805190848211610de7578190610b75600c546112dc565b888111610d7b575b50602090888311600114610cf9578792610cee575b50508160011b915f199060031b1c191617600c555b8151928311610cdb5750610bbc600d546112dc565b848111610c7b575b506020938211600114610bfe57928293829392610bf3575b50508160011b915f199060031b1c191617600d5580f35b015190505f80610bdc565b600d8352601f198216937fd7b6990105719101dabeb77144f2a3385c8033acd3af97e9423a695e81ad1eb591845b868110610c635750836001959610610c4b575b505050811b01600d5580f35b01515f1960f88460031b161c191690555f8080610c3f565b91926020600181928685015181550194019201610c2c565b600d84527fd7b6990105719101dabeb77144f2a3385c8033acd3af97e9423a695e81ad1eb58580850160051c82019260208610610cd2575b0160051c01905b818110610cc75750610bc4565b848155600101610cba565b92508192610cb3565b634e487b7160e01b845260419052602483fd5b015190505f80610b92565b600c88527fdf6966c971051c3d54ec59162606531493a51404a002842f56009d7e5cf4a8c79250601f198416885b818110610d635750908460019594939210610d4b575b505050811b01600c55610ba7565b01515f1960f88460031b161c191690555f8080610d3d565b92936020600181928786015181550195019301610d27565b909150600c87527fdf6966c971051c3d54ec59162606531493a51404a002842f56009d7e5cf4a8c78880850160051c82019260208610610dde575b9085949392910160051c01905b818110610dd05750610b7d565b888155849350600101610dc3565b92508192610db6565b634e487b7160e01b865260418352602486fd5b015190505f80610b49565b600b89527f0175b7a638427703f0dbe7bb9bbf987a2551717b34e79f33b5b1008d1fa01db99250601f198416895b818110610e6f5750908460019594939210610e57575b505050811b01600b55610b5e565b01515f1960f88460031b161c191690555f8080610e49565b92936020600181928786015181550195019301610e33565b909150600b88527f0175b7a638427703f0dbe7bb9bbf987a2551717b34e79f33b5b1008d1fa01db98980850160051c82019260208610610eea575b9085949392910160051c01905b818110610edc5750610b34565b898155849350600101610ecf565b92508192610ec2565b50823461035c57602036600319011261035c578160209360ff92358152600e855220541690519015158152f35b50346102a55761063890610f333661150f565b91925192610f40846114bd565b8584526106338383836115e0565b823461089b57602036600319011261089b57610f6861126e565b610f706115b4565b60018060a01b03166001600160601b0360a01b600854161760085580f35b823461089b57610638610fa03661150f565b916115e0565b50346102a557816003193601126102a557602090600a549051908152f35b50346102a557816003193601126102a5578051610462916107058261020181611314565b5082903461035c578060031936011261035c5761100361126e565b916024356110108161177b565b331515806110b2575b80611089575b611073576001600160a01b039485169482918691167f8c5be1e5ebec7d5bd14f71427d1e84f3dd0314c0f7b2291e5b200ac8c7c3b9258880a48452602052822080546001600160a01b031916909117905580f35b835163a9fbf51f60e01b81523381850152602490fd5b506001600160a01b03811686526005602090815284872033885290528386205460ff161561101f565b506001600160a01b038116331415611019565b50823461035c57602036600319011261035c579182602093356110e78161177b565b50825283528190205490516001600160a01b039091168152f35b50346102a557816003193601126102a557805190828054611121816112dc565b808552916001918083169081156107bf575060011461114c57505050610705826104629403836114ed565b80809650527f290decd9548b62a8d60345a988386fc84ba6bc95484008f6362f93160ef3e5635b828610611190575050506107058260206104629582010194610751565b80546020878701810191909152909501948101611173565b50346102a557806003193601126102a55760209181906001600160a01b036111ce61126e565b168152601084528181206024358252845220549051908152f35b8390853461035c57602036600319011261035c573563ffffffff60e01b811680910361035c5760209250632483248360e11b811490811561122b575b5015158152f35b6380ac58cd60e01b81149150811561125d575b811561124c575b5083611224565b6301ffc9a760e01b14905083611245565b635b5e139f60e01b8114915061123e565b600435906001600160a01b038216820361128457565b5f80fd5b602435906001600160a01b038216820361128457565b91908251928382525f5b8481106112c8575050825f602080949584010152601f8019910116010190565b6020818301810151848301820152016112a8565b90600182811c9216801561130a575b60208310146112f657565b634e487b7160e01b5f52602260045260245ffd5b91607f16916112eb565b600c545f9291611323826112dc565b80825291600190818116908115611398575060011461134157505050565b91929350600c5f527fdf6966c971051c3d54ec59162606531493a51404a002842f56009d7e5cf4a8c7915f925b84841061138057505060209250010190565b8054602085850181019190915290930192810161136e565b915050602093945060ff929192191683830152151560051b010190565b600d545f92916113c4826112dc565b8082529160019081811690811561139857506001146113e257505050565b91929350600d5f527fd7b6990105719101dabeb77144f2a3385c8033acd3af97e9423a695e81ad1eb5915f925b84841061142157505060209250010190565b8054602085850181019190915290930192810161140f565b600b545f9291611448826112dc565b80825291600190818116908115611398575060011461146657505050565b91929350600b5f527f0175b7a638427703f0dbe7bb9bbf987a2551717b34e79f33b5b1008d1fa01db9915f925b8484106114a557505060209250010190565b80546020858501810191909152909301928101611493565b6020810190811067ffffffffffffffff8211176114d957604052565b634e487b7160e01b5f52604160045260245ffd5b90601f8019910116810190811067ffffffffffffffff8211176114d957604052565b6060906003190112611284576001600160a01b0390600435828116810361128457916024359081168103611284579060443590565b67ffffffffffffffff81116114d957601f01601f191660200190565b92919261156c82611544565b9161157a60405193846114ed565b829481845281830111611284578281602093845f960137010152565b9080601f83011215611284578160206115b193359101611560565b90565b6007546001600160a01b031633036115c857565b60405163118cdaa760e01b8152336004820152602490fd5b6001600160a01b039182169290918315611763575f928284528260209560028752604096848888205416968791331515806116cd575b509060027fddf252ad1be2c89b69c2b068fc378daa952ba7f163c4a11628f55a4df523b3ef928461169c575b858352600381528b8320805460010190558683525289812080546001600160a01b0319168517905580a4169283830361167b5750505050565b6064945051926364283d7b60e01b8452600484015260248301526044820152fd5b5f87815260046020526040902080546001600160a01b0319169055848352600381528b832080545f19019055611642565b91939450915080611722575b156116e95785929187915f611616565b878688611706576024915190637e27328960e01b82526004820152fd5b604491519063177e802f60e01b82523360048301526024820152fd5b503387148015611747575b806116d957508582526004815233858984205416146116d9565b5086825260058152878220338352815260ff888320541661172d565b604051633250574960e11b81525f6004820152602490fd5b5f818152600260205260409020546001600160a01b031690811561179d575090565b60249060405190637e27328960e01b82526004820152fd5b813b6117c2575b50505050565b604051630a85bd0160e11b8082523360048301526001600160a01b0392831660248301526044820194909452608060648201526020959290911693909290839061181090608483019061129e565b039285815f958187895af18491816118b7575b50611882575050503d5f1461187a573d61183c81611544565b9061184a60405192836114ed565b81528091843d92013e5b8051928361187557604051633250574960e11b815260048101849052602490fd5b019050fd5b506060611854565b919450915063ffffffff60e01b160361189f57505f8080806117bc565b60249060405190633250574960e11b82526004820152fd5b9091508681813d83116118f0575b6118cf81836114ed565b810103126106dd57516001600160e01b0319811681036106dd57905f611823565b503d6118c5565b156118fe57565b60405162461bcd60e51b81526020600482015260136024820152722ab730baba3437b934bd32b21031b0b63632b960691b6044820152606490fd5b1561194057565b60405162461bcd60e51b815260206004820152600e60248201526d105b1c9958591e481b5a5b9d195960921b6044820152606490fd5b5f1981146119845760010190565b634e487b7160e01b5f52601160045260245ffd5b60408051926119a6846114bd565b5f8085526001600160a01b0394848616949192918515611ba65782845260209660028852858520541683878215159283611b75575b81885260038b528888208054600101905582885260028b5288882080546001600160a01b031916831790557fddf252ad1be2c89b69c2b068fc378daa952ba7f163c4a11628f55a4df523b3ef8880a4611b5d573b611a3c575b505050505050565b85611a7a918596979894955180938192630a85bd0160e11b96878452336004850152896024850152604484015260806064840152608483019061129e565b0381878a5af1849181611b1d575b50611ae6575050503d5f14611ade573d611aa181611544565b90611aae845192836114ed565b81528091853d92013e5b80519384611ad8578251633250574960e11b815260048101859052602490fd5b84925001fd5b506060611ab8565b919550915063ffffffff60e01b1603611b065750505f8080808080611a34565b602492505190633250574960e11b82526004820152fd5b9091508781813d8311611b56575b611b3581836114ed565b810103126106dd57516001600160e01b0319811681036106dd57905f611a88565b503d611b2b565b84516339e3563760e11b815260048101859052602490fd5b5f83815260046020526040902080546001600160a01b031916905580885260038b5288882080545f190190556119db565b8451633250574960e11b815260048101859052602490fd5b9190915f9080825260209160068352604081209085519067ffffffffffffffff8211611d1d57611bee83546112dc565b601f8111611cda575b508490601f8311600114611c5757907ff8e1a15aba9398e019f0b49df1a4fde98ee17ae345cb5f6b5e2c27f5033e8ce7969783611c4c575b50508160011b915f199060031b1c19161790555b604051908152a1565b015190505f80611c2f565b9196601f198816848452868420935b818110611cc357509160019391897ff8e1a15aba9398e019f0b49df1a4fde98ee17ae345cb5f6b5e2c27f5033e8ce7999a9410611cab575b505050811b019055611c43565b01515f1960f88460031b161c191690555f8080611c9e565b929387600181928786015181550195019301611c66565b838252858220601f840160051c810191878510611d13575b601f0160051c01905b818110611d085750611bf7565b828155600101611cfb565b9091508190611cf2565b634e487b7160e01b81526041600452602490fdfea2646970667358221220db9df2c5913d6fb0cff495cd82c35d7bd838c1b8c849334e670bd7a46cca999c64736f6c63430008140033","linkReferences":{}},"methodIdentifiers":{"approve(address,uint256)":"095ea7b3","balanceOf(address)":"70a08231","crowdFundContractAddr()":"8ab82b28","firstSupporterMinted(uint256)":"5251e75b","firstSupporterURI()":"89aff34c","getApproved(uint256)":"081812fc","isApprovedForAll(address,address)":"e985e9c5","mintRaffleNFT(uint256,address)":"67e6f6cc","mintToFirstSupporter(uint256,address)":"fdc568a3","mintToTopSupporter(uint256,address)":"c3f404ac","name()":"06fdde03","owner()":"8da5cb5b","ownerOf(uint256)":"6352211e","renounceOwnership()":"715018a6","safeTransferFrom(address,address,uint256)":"42842e0e","safeTransferFrom(address,address,uint256,bytes)":"b88d4fde","setApprovalForAll(address,bool)":"a22cb465","setCrowdFundContract(address)":"34b371c7","setVRFContract(address)":"853b2b88","supportsInterface(bytes4)":"01ffc9a7","symbol()":"95d89b41","tokenId()":"17d70f7c","tokenURI(uint256)":"c87b56dd","topSupporterMinted(uint256)":"cd9b68d3","topSupporterURI()":"14e7bcfd","transferFrom(address,address,uint256)":"23b872dd","transferOwnership(address)":"f2fde38b","updateURIs(string,string,string)":"5dc34a1e","userToCampaignToken(address,uint256)":"0549097d","vrfContractAddr()":"f992fa4a","vrfWinnerURI()":"9692ecb8"},"id":28}